:020000040000FA
:020000001028C6
:040002000034003492
:08000800090082070C342C34BE
:100010001C343C348C34AC349C34BC344C346C34A0
:1000200021007830990023008C018D0122008C0181
:100030008D01210000308C0000308D008801A0016E
:10004000A1010C160C10201020134C30A1006020D0
:10005000CB206020CB202030A1006020D120C030F8
:10006000A1006020CB209030A1006020CB20013087
:10007000A1006020CB20942020142708AF0004307A
:10008000A71F46282709013EAF00E430A1006020E9
:10009000CB206B20FB30A1006020CB203230A100B0
:1000A0006020CB200530A1006020CB202808AF00C5
:1000B0006B20A430A1006020CB20DD2001005F2850
:1000C0003E308C0520088C0421088D008C17000020
:1000D00000008C1308007C202B080520A100602064
:1000E000CB202C080520A1006020CB202D08052066
:1000F000A1006020CB200800AB01AC01AD01643051
:100100002F02031C8628AF00AB0A7F280A302F027B
:10011000031C8D28AF00AC0A862801302F02031C77
:100120000800AF00AD0A8D2821000C1220000C122F
:10013000D72021000C162000AE01CB200C1A9E28DF
:100140000C1EA0280C1AA228BC202508AA00AE0765
:10015000BC202508AE07BC202508A900AE07BC209E
:100160002508AE07BC2025082E06031D0800290817
:10017000A7002A08A80008000830A400A501A601CD
:100180000C1EC028A60A0C1AC22830302602A50D63
:10019000A40BBF2808002830A2000000A20BCD2825
:1001A00008002930A300CB20A30BD32808000D3072
:1001B000B100D120B10BD92808003230B000D720CF
:0601C000B00BDF2808006F
:020000040001F9
:02000E00C43FED
:02001000FF3FB0
:00000001FF
